:020000042001D9
:100000009711FF5F9381012A97020000938282017A
:100010007390523093021000638402007350107C7E
:10002000970200009382C211739052301701FFDFD4
:10003000130141FD63140100138101D0732540F1C8
:10004000814213030040137101FF6385A2001A91DE
:100050008502D5BF970000009380200863830000CD
:100060008290732540F181450146CD209700FFDF46
:10007000938040F96383000082909702000093828E
:10008000C2007390523003230000F5BF000000004F
:100090008280A14673B306309302400063C55500C9
:1000A0001376350011CA230005000505FD15E34749
:1000B000B0FE731003308280232005001105F11576
:1000C000E34EB0FC73100330828023200300110341
:1000D000E34D73FE828006849702FFDF938282F2F3
:1000E000638C02049702FFDF9382C2F1F32740F191
:1000F000A14673B006300A839703FFDF93838330F2
:100100008A9363037300D137639857021703FF5F25
:10011000130343EF9713FF5F9383C39D6303730040
:100120006D371703FFE71303E3ED9703FFE79383AF
:1001300063ED63037300513FA2808280F322203479
:1001400073231034F3233034D5BF82800684971193
:10015000FF5F93812115930200006311550E9742B2
:1001600000009382A2441703FF5F1303A3E99713D0
:10017000FF5F93832398638C6200635A730003A527
:10018000020091022320A3001103E34A73FE971299
:100190000000938222E91703FFE71303A3E6970306
:1001A000FFE7938323E6638C6200635A730003A521
:1001B000020091022320A3001103E34A73FE0F10F3
:1001C0000000971200009382E2E51703FF5F13031C
:1001D00063E39703FF5F9383E3E2638C6200635AF8
:1001E000730003A5020091022320A3001103E34A38
:1001F00073FE0F1000001713FF5F1303A38F938389
:10020000418F63577300232003001103E34D73FEF6
:100210001712FF5F1302028E11C20296172500000B
:10022000130505AAEF107025EF10D02C172500003C
:100230001305C5CCEF107024EF1070473937FD5609
:1002400073B0463073B04634F327103037270400BC
:100250007D8F09C773B0363073B02630370704007E
:100260007D8F19C373B00618370701001307870283
:10027000F98F89CBF32700300967D98F7390073046
:1002800073503000F327103037072000F98F99C7DB
:10029000F327003093E70720739007300545970553
:1002A000000093852513170600001306E61231207F
:1002B000EF10101EA28082808280411106C2F322BC
:1002C00040F1130300006385620073005010F5BF16
:0A02D000EF00105B924041018280B4
:0C02E000EC0201201003012004030120A7
:1002EC0037150080832705A6F1659385052003A3A8
:1002FC000700130505A602833705008013050509C1
:10030C006F30804541114AC03709008026C29304E2
:10031C00090922C4C04006C611C41C40484082973B
:10032C00004465FC9C40B725F40093850540DC43F4
:10033C00130509098297804411C41C4048408297D8
:10034C00004465FCB240224492440249410182803F
:10035C0048656C6C6F2C20576F726C64313233347F
:10036C0035362100000000000000000000000000F5
:10037C000000000000000000000000000000000071
:10038C000000000000000000000000000000000061
:10039C000000000000000000000000000000000051
:1003AC000000000000000000000000000000000041
:1003BC000000000000000000000000000000000031
:1003CC0000000000D8030120000000006C69626787
:1003DC006C6F737300000000801F01206C210120E2
:1003EC007C200120000000000000000006210120FC
:1003FC003621012080200120E61F0120A4210120AC
:10040C000A22012000000000000000000000000093
:10041C0000000000000000000000000000000000D0
:10042C0000000000EA1F0120561F01200000000000
:10043C000000000000000000000000004227012026
:10044C005627012056270120562701202E27012050
:10045C00562701205627012056270120102701205E
:10046C005627012056270120562701205627012008
:10047C001027012010270120102701201027012010
:10048C001027012010270120102701201027012000
:10049C0010270120102701201027012010270120F0
:1004AC0010270120102701201027012010270120E0
:1004BC002C2801205A2801205A28012036280120F6
:1004CC005A2801205A2801205A28012040280120AE
:1004DC005A2801205A2801205A2801204C28012092
:1004EC005A2801205A2801205A2801205A28012074
:1004FC001E2801201E2801201E2801201E28012054
:10050C001E2801201E2801201E2801201E28012043
:10051C001E2801201E2801201E2801201E28012033
:10052C001E2801201E2801201E2801201E28012023
:10053C0086280120B4280120B4280120902801200D
:10054C00B4280120B4280120B42801209A280120C5
:10055C00B4280120B4280120B4280120A6280120A9
:10056C00B4280120B4280120B4280120B42801208B
:10057C00782801207828012078280120782801206B
:10058C00782801207828012078280120782801205B
:10059C00782801207828012078280120782801204B
:1005AC00782801207828012078280120782801203B
:1005BC0001000000030000000400000020240120C2
:1005CC00322401204E240120E02701209024012018
:1005DC009A2401209C2701209E240120A224012082
:1005EC00D22401200225012036250120722701206A
:1005FC004C2501205E250120642501206C2501205D
:10060C00EE250120A6270120FA230120000000007E
:10061C000000000000000000000000007226012015
:10062C00000000005E2801200428012000000000CA
:10063C0000000000000000000000000000000000AE
:10064C000000000000000000000000001C2401203D
:10065C00000000000000000000000000000000008E
:10066C0000000000483501200000000000000000E0
:10067C00000000000000000000000000000000006E
:10068C00083201200000000090340120EA340120DF
:10069C0000000000000000005C3401201C3401202C
:1006AC00E6310120C23101200000000000000000F2
:1006BC00000000000000000082320120E032012026
:1006CC00403301206E33012064370120CA370120EA
:1006DC00903801200100000020000000001BB70032
:1006EC0000366E01010000001F0000000300000036
:1006FC003F000000010000002000000000366E01E9
:10070C00006CDC02030000001F000000020000006F
:10071C003F0000000100000010000000808D5B0015
:10072C00001BB700000000001F00000003000000C9
:10073C003F0000000100000010000000001BB7008B
:10074C0000366E01010000001F00000002000000D6
:10075C003F000000010000001000000000366E0198
:10076C00006CDC02030000001F000000020000000F
:10077C001F0000000100000008000000808D5B00DD
:10078C00001BB700000000001F0000000300000069
:10079C001F0000000100000008000000001BB70053
:1007AC0000366E01010000001F0000000200000076
:1007BC001F000000010000000800000000366E0160
:1007CC00006CDC02030000001F00000002000000AF
:1007DC000F0000000100000004000000808D5B0091
:1007EC00001BB700000000001F0000000300000009
:1007FC000F0000000100000004000000001BB70007
:10080C0000366E01010000001F0000000200000015
:10081C000F000000010000000400000000366E0113
:10082C00006CDC02030000001F000000020000004E
:10083C00070000000100000002000000808D5B003A
:10084C00001BB700000000001F00000002000000A9
:10085C000F0000000100000002000000001BB700A8
:10086C0000366E01010000001F00000001000000B6
:10087C000F000000010000000200000000366E01B5
:10088C00006CDC02030000001F00000001000000EF
:10089C00070000000200000001000000808D5B00DA
:1008AC00001BB700000000001F000000010000004A
:1008BC00070000000200000001000000001BB70050
:1008CC0000366E01010000001F0000000100000056
:1008DC0003000000020000000100000000366E0161
:1008EC00006CDC02030000001F000000030000008D
:1008FC00FFFFFFFF0400000001000000808D5B0083
:10090C00001BB700000000001F00000003000000E7
:10091C00000000000400000001000000001BB700F4
:10092C0000366E01010000001F00000003000000F3
:10093C00FFFFFFFF040000000100000000366E0105
:10094C00006CDC02030000001F000000020000002D
:10095C00FFFFFFFF0600000001000000808D5B0020
:10096C00AAC2A20000000000230000000100000049
:10097C00020000000600000001000000AAC2A20054
:10098C00001BB7000000000017000000030000006F
:10099C00FFFFFFFF0600000001000000001BB70076
:1009AC000024F400010000002F00000003000000F0
:1009BC00FFFFFFFF06000000010000000024F40010
:1009CC0080A81201010000001700000002000000C6
:1009DC00FFFFFFFF060000000100000080A81201CD
:1009EC0055854501020000002300000002000000B4
:1009FC00FFFFFFFF0800000001000000808D5B007E
:100A0C00001BB700000000001F00000003000000E6
:100A1C00FFFFFFFF0800000001000000001BB700F3
:100A2C0000366E01010000001F00000002000000F3
:100A3C00FFFFFFFF080000000100000000366E0100
:100A4C00006CDC02030000001F000000010000002D
:100A5C00FFFFFFFF0A00000001000000808D5B001B
:100A6C00007C920000000000270000000300000042
:100A7C00FFFFFFFF0A00000001000000007C920055
:100A8C00001BB70000000000130000000200000073
:100A9C00FFFFFFFF0A00000001000000001BB70071
:100AAC0000F82401010000002700000002000000F3
:100ABC00FFFFFFFF0A0000000100000000F8240106
:100ACC0000366E0101000000130000000100000060
:100ADC00FFFFFFFF0A0000000100000000366E015E
:100AEC0000F0490203000000270000000100000094
:100AFC00FFFFFFFF0C00000001000000808D5B0079
:100B0C0000127A00000000002F000000030000001B
:100B1C00FFFFFFFF0C0000000100000000127A0034
:100B2C00001BB700000000001700000002000000CE
:100B3C00FFFFFFFF0C00000001000000001BB700CE
:100B4C000024F400010000002F000000020000004F
:100B5C00FFFFFFFF0C000000010000000024F40068
:100B6C0000366E01010000001700000001000000BB
:100B7C00FFFFFFFF0C0000000100000000366E01BB
:100B8C0080C3C901030000002F0000000100000019
:100B9C00FFFFFFFF0C0000000100000080C3C90133
:100BAC000048E801030000002F00000001000000D5
:100BBC00FFFFFFFF0E00000001000000808D5B00B6
:100BCC00B6A1680000000000370000000300000020
:100BDC00FFFFFFFF0E00000001000000B7A168003E
:100BEC00001BB700000000001B000000020000000A
:100BFC00FFFFFFFF0E00000001000000001BB7000C
:100C0C006D43D1000100000037000000020000001D
:100C1C00FFFFFFFF0E000000010000006E43D1003B
:100C2C0000366E01010000001B00000001000000F6
:100C3C00FFFFFFFF0E0000000100000000366E01F8
:100C4C00DB86A20103000000370000000100000059
:100C5C00FFFFFFFF1000000001000000808D5B0013
:100C6C00001BB700000000001F0000000200000085
:100C7C00FFFFFFFF1000000001000000001BB70089
:100C8C0000366E01010000001F0000000100000092
:100C9C00FFFFFFFF1200000001000000808D5B00D1
:100CAC00AAC2A20000000000230000000200000005
:100CBC00FFFFFFFF1200000001000000ABC2A2000A
:100CCC00001BB70000000000110000000100000034
:100CDC00FFFFFFFF1200000001000000001BB70027
:100CEC0055854501010000002300000001000000B3
:100CFC00FFFFFFFF1400000001000000808D5B006F
:100D0C00007C9200000000002700000002000000A0
:100D1C00FFFFFFFF1400000001000000007C9200A8
:100D2C00001BB700000000001300000001000000D1
:100D3C00FFFFFFFF1400000001000000001BB700C4
:100D4C0000F8240101000000270000000100000051
:100D5C00FFFFFFFF1600000001000000808D5B000C
:100D6C00E82A8500000000002B00000002000000B3
:100D7C00FFFFFFFF1600000001000000E92A8500BC
:100D8C00001BB7000000000015000000010000006F
:100D9C00FFFFFFFF1600000001000000001BB70062
:100DAC00D1550A01010000002B00000001000000D9
:100DBC00FFFFFFFF1800000001000000808D5B00AA
:100DCC0000127A00000000002F000000020000005A
:100DDC00FFFFFFFF180000000100000000127A0066
:100DEC00001BB7000000000017000000010000000D
:100DFC00FFFFFFFF1800000001000000001BB70000
:100E0C000024F400010000002F000000010000008D
:100E1C00FFFFFFFF1A00000001000000808D5B0047
:100E2C0027AE70000000000033000000020000003C
:100E3C00FFFFFFFF1A0000000100000028AE700049
:100E4C00001BB700000000001900000001000000AA
:100E5C00FFFFFFFF1A00000001000000001BB7009D
:100E6C006658E100010000003300000001000000A2
:100E7C00FFFFFFFF1C00000001000000808D5B00E5
:100E8C00B6A168000000000037000000020000005E
:100E9C00FFFFFFFF1C00000001000000B7A168006D
:100EAC00001BB700000000001B0000000100000048
:100EBC00FFFFFFFF1C00000001000000001BB7003B
:100ECC006D43D1000100000037000000010000005C
:100EDC00FFFFFFFF1E00000001000000808D5B0083
:100EEC0000A86100000000003B00000002000000B0
:100EFC00FFFFFFFF1E0000000100000000A86100C2
:100F0C00001BB700000000001D00000001000000E5
:100F1C00FFFFFFFF1E00000001000000001BB700D8
:100F2C000050C300010000003B0000000100000065
:100F3C00FFFFFFFF2000000001000000808D5B0020
:100F4C00001BB700000000001F00000001000000A3
:100F5C00FFFFFFFFCC3C0120B83C01209A3C012054
:100F6C00943C0120863C0120C23C0120803C0120A5
:100F7C00743C0120383D01206E3D0120423D012092
:100F8C003C3D0120323D0120643D01202C3D0120DF
:100F9C001C3D0120BE3A01209A3A0120EA3A012078
:100FAC00003B0120183B0120443B0120683B012001
:100FBC008C3B0120B83B0120DC3B0120183C01207C
:100FCC00483C0120F03C0120783D01208E3D012061
:100FDC0076430120A041012038400120F04101203E
:100FEC002C42012030420120D43E0120FA3E012047
:100FFC001C3F0120663F0120AA3F0120F43F012045
:10100C006C400120C84001200641012062410120B2
:04101C0000000000D0
:10108000411106C62920B240014541018280370541
:1010900001201305C535F1A8011126CA4AC806CE9C
:1010A00022CC4EC652C4AA842E8901C51C4D91E3A0
:1010B00011239C4C804499E32685ED2997F7FFFF87
:1010C0009387472D631CF402C0408357C400A18B53
:1010D000B1C71C48A1C7FD59294A1C4483450900D2
:1010E000FD17B1E91CC463DE07062286A9452685E3
:1010F0004128FD576308F502294535A097F7FFFF02
:101100009387472B6314F4008044C1B797F7FFFF20
:1011100093874726E31BF4FAC04445BFA285268582
:10112000052255D97D55F2406244D2444249B24924
:10113000224A056182801CC4050963D70700184C48
:1011400063CBE700638945011C401387170018C073
:101150002380B70059B7228626851D20E31F35F767
:10116000D1B71C401387170018C029472380E70018
:1011700061B79707FF5F9387E792AA85884329BFE6
:10118000011122CC26CA4AC806CE4EC6AA842E8990
:10119000328401C51C4D91E3312997F7FFFF9387F6
:1011A000671F6319F406C0401C4C1CC48357C4005D
:1011B000A18BC9C31C48BDCF1C4808409379F90FC7
:1011C0001379F90F1D8D5C486346F500A2852685CD
:1011D000E9242DE51C440505FD171CC41C4013879C
:1011E000170018C0238037015C486389A700835724
:1011F000C400858B81CBA9476316F900A28526859B
:10120000692C0DEDF24062444A85D2444249B2490C
:101210000561828097F7FFFF9387C7196314F40075
:10122000804459B797F7FFFF9387C714E31EF4F67E
:10123000C0449DBFA285268521203DDD7D59D9B7BB
:1012400041119707FF5F9387E78526C2844322C435
:101250004AC006C62A892E8489C49C4C99E32685F7
:10126000912E97F7FFFF9387E712631CF402C040AB
:101270000317C40093170701C18393F68700B5EEE7
:1012800093F607019DEEA5472320F9001367070495
:101290002316E4007D55B2402244924402494101A4
:1012A000828097F7FFFF9387E7106314F400804470
:1012B000C1B797F7FFFF9387E70BE31BF4FAC0442E
:1012C00045BF918B8DC74C5889C9930744046384EB
:1012D000F5004A85A12B232A04028357C400232248
:1012E000040093F7B7FD2316F4001C481CC0835775
:1012F000C40093E787002316F4001C4881EF83574E
:10130000C4001307002093F707286385E700A28530
:101310004A85BD218357C40013F7170005C75C48F1
:1013200023240400B307F0401CCC1C480145A5F75A
:101330008317C40013F7070839DF93E70704231660
:10134000F40089BF898B014791E3584818C4F1BF65
:1013500083D7C500011122CC26CA06CE4AC84EC684
:1013600013F78700AA842E8465E7D8416347E0001D
:10137000B8416344E0000145C1A058546DDF03A9A2
:1013800004009396370123A0040063DE0606684834
:101390008357C400918B99C75C401D8D5C5899C3DD
:1013A0003C401D8D5C540C502A86814626858297D0
:1013B000FD570357C400631DF5009440F54763E4EF
:1013C000D708B70740208507B3D7D700858BA5CFAF
:1013D0001C48232204001CC09317370163D8070060
:1013E000FD576314F5009C4091E368C84C5823A056
:1013F0002401D1D1930744046384F50026853D215F
:10140000232A04028DBF0C5085460146268502978B
:10141000FD57E31FF5F69C40A5DF75476385E700A0
:1014200059476395E70023A02401B1B78357C4004F
:1014300093E707042316F400F2406244D244424981
:10144000B24905618280136707042316E400EDB7F3
:1014500083A90501E38109F203A905008D8B23A06F
:10146000350133093941014791E3D84918C4E354A0
:1014700020F11C540C50CA864E8626858297634AFA
:10148000A0008357C4007D5593E707042316F4009A
:1014900065B7AA993309A940D9BF9C49B9CF0111B1
:1014A00022CC06CE2A8411C51C4D81E72EC61922F6
:1014B000B24597F7FFFF9387E7ED639BF5004C403C
:1014C0008397C50095C722856244F240056149B5FE
:1014D00097F7FFFF938707EE6394F5000C44CDB7B1
:1014E00097F7FFFF938707E9E39CF5FC4C44C9BFDE
:1014F000F2406244014505618280014582804111CC
:1015000022C406C62A842316B5002317C50023204B
:101510000500232205002324050023220506232895
:101520000500232A0500232C0500214681451305CB
:10153000C505ED24970700009387A74A5CD097075D
:1015400000009387074D1CD49707000093874751ED
:101550005CD4970700009387075400D01CD8B24092
:1015600022444101828097050000938545F3B9A28A
:10157000411126C2130680069384F5FFB384C4028A
:101580004AC02E8922C406C693854407B1262A8400
:1015900019C92320050023222501310508C413861B
:1015A00084068145A52C2285B240224492440249FA
:1015B000410182801C4DBDE3411106C622C497073C
:1015C0000000938787FA1CD597F7FE5F9387C74D76
:1015D0009C432324050423260504232805046314BF
:1015E000F50085471CCD2A841D2848C02285052882
:1015F00008C422852D2048C4484001469145013742
:1016000008440546A545E53D48440946C945C53D4C
:1016100085471CCCB2402244410182808280411126
:1016200097F7FE5F9387474826C284434AC006C6A1
:101630009C4C22C42A8999E32685AD3F9384840477
:101640008044DC40FD1763D607009C40B1CF844046
:10165000C5BF0317C40031E7C177850723220406FD
:101660002320040023220400232404005CC4232834
:101670000400232A0400232C04002146814513057D
:10168000C405692A232A0402232C04022324040407
:10169000232604042285B240224492440249410197
:1016A00082801304840679BF91454A85D13588C06C
:1016B0002A8451FDB1472320F900E9BF797122D472
:1016C0004AD052CC56CA5AC85EC606D626D24ECE8C
:1016D0002A8AAE8A130485040149054BFD5B09EC97
:1016E000B25022544A8592540259F249624AD24A6F
:1016F000424BB24B45618280044483294400FD196A
:1017000063D409000040E1BF83D7C400637BFB00C2
:101710008397E40063877701A6855285829A3369AF
:10172000A90093848406E1BF1971A6DAAE8483957B
:10173000E500A2DC86DE328463DC050083D7C400CA
:1017400023A0060093F707089DE39307004015A028
:10175000300836C6612EB246E34205FE7247BD67C9
:10176000F98F7977BA9793B717009CC2F9BF93079F
:1017700000041CC0F6506654D654014509618280AD
:1017800083D7C500011122CC06CE26CA4AC8898B50
:101790002E8489CF930774041CC01CC885475CC87D
:1017A000F2406244D24442490561828074003000B4
:1017B000AA849D3FA2452A892685392A01ED8317EF
:1017C000C40013F7072069FFF19B93E72700231656
:1017D000F400C9B797070000938727D99CD4835793
:1017E000C40008C008C893E707082316F400A247FE
:1017F0005CC8B24789CF8315E4002685292E01C92C
:101800008357C400F19B93E717002316F400835716
:10181000C4003369F9002316240159B72A8311C67D
:101820002300B3007D16050365FE8280CDC583A726
:10183000C5FF411122C406C626C21384C5FF63D367
:1018400007003E94AA84152697F7FE5F9387872AA0
:101850009C4389EF2322040097F7FE5F23AC87287F
:101860002244B24026859244410109A6637EF400D9
:1018700014403307D4006396E7009843DC4336975F
:1018800018C05CC0D1BFBA87D84319C3E37DE4FE5A
:1018900094433386D700631F86001040B29694C3EA
:1018A0003386D700E31EC7FA10435843B29694C359
:1018B000D8C37DB76375C400B1479CC055B710400D
:1018C000B306C4006316D70014435843B29614C03D
:1018D00058C0C0C371B78280011126CA93843500F5
:1018E000F19806CE22CC4AC84EC6A104B14763F790
:1018F000F404B14463E6B4042A89852C97F7FE5FAB
:101900009387471F98433A8431E497F7FE5F9387A4
:10191000A71E9C4381EB81454A85712897F7FE5F9E
:1019200023ACA71CA6854A857920FD596319350784
:10193000B1472320F9004A85152C29A0E3DC04FADD
:10194000B1471CC10145F2406244D2444249B24908
:10195000056182801C40858F63C00704AD4663F635
:10196000F6001CC03E9404C001A85C4063148702CA
:1019700017F7FE5F2320F7184A85CD2A1305B40018
:101980009307440061993307F54055DF3A94898FF6
:101990001CC055BF5CC3CDB722874040B5B7130408
:1019A00035007198E30185FCB305A4404A852120E8
:1019B000E31B35FBB5BF411122C42A842E8523A821
:1019C000018E06C63D24FD576317F5009387018FEE
:1019D0009C4391C31CC0B24022444101828041110A
:1019E00022C42E848395E50006C651226349050072
:1019F0007C48AA977CC8B240224441018280835728
:101A0000C4007D777D17F98F2316F400EDB783D7D7
:101A1000C500011122CC26CA4AC84EC606CE93F78D
:101A20000710AA842E843289B68991C78395E50070
:101A30008946014629228357C4007D777D17F98F97
:101A40002316F4008315E4006244F240CE864A86F1
:101A5000B24942492685D24405613DA8411122C4BC
:101A60002E848395E50006C6D928FD570357C40088
:101A7000631BF500FD77FD17F98F2316F400B240C4
:101A80002244410182808567D98F2316F40068C8FB
:101A9000FDB78395E5003DA0411122C42A842E851F
:101AA000B285368623A8018E06C6592AFD576317CC
:101AB000F5009387018F9C4391C31CC0B240224420
:101AC00041018280411122C42A842E8523A8018EDF
:101AD00006C6E120FD576317F5009387018F9C43ED
:101AE00091C31CC0B240224441018280411122C4F2
:101AF0002A842E85B28523A8018E06C64D28FD575F
:101B00006317F5009387018F9C4391C31CC0B240BB
:101B1000224441018280411122C42A842E8523A8B7
:101B2000018E06C67928FD576317F5009387018F4C
:101B30009C4391C31CC0B2402244410182804111A8
:101B400022C42A842E85B285368623A8018E06C635
:101B5000AD28FD576317F5009387018F9C4391C310
:101B60001CC0B240224441018280828082804111A7
:101B700022C42A842E85B285368623A8018E06C605
:101B8000B928FD576317F5009387018F9C4391C3D4
:101B90001CC0B240224441018280411106C6DD20B2
:101BA000B240930780051CC17D55410182804111DF
:101BB00006C6C928B240930780FA1CC17D55410171
:101BC00082807D15133515008280411106C65D287F
:101BD000B240930780051CC17D55410182804111AF
:101BE00006C64D20B240930780051CC17D554101BA
:101BF0008280411106C622C4138701D09387015009
:101C0000630AF702138781800043B306A40063E9E7
:101C1000F6007D542285B24022441CC341018280DB
:101C2000AA85228514C3EFE0CFC62285B2402244A4
:101C3000410182807D542285B2402244410182804C
:101C4000411106C622C426C285476312F5022E84BE
:101C5000B384C50019C6034504000504DD24E31C54
:101C600094FE0145B24022449244410182801928E9
:101C7000930780051CC17D55F5B7AA8581460146AD
:101C80000145F1A897F7FE5F9387C7E188438280FB
:101C9000411122C406C697070000938707152A84BE
:101CA00099C38145892297F7FE5F9387E7DF8843D1
:101CB0001C5591C382972285EF20500E411197E762
:101CC000FFFF9387276322C417E4FFFF1304846296
:101CD0001D8C26C206C60984BE8411E4B24022448B
:101CE0009244410182807D1493172400A6979C435F
:101CF0008297E5B7411197E7FFFF9387A75E22C45C
:101D000017E4FFFF1304045E1D8C26C24AC006C6FA
:101D1000098481443E896396840297E7FFFF938795
:101D2000675C17E4FFFF1304E45B1D8C09848144A6
:101D30003E89639F8400B24022449244024941019B
:101D4000828093972400CA979C4385048297E1B7C9
:101D500093972400CA979C4385048297D9BF97F72D
:101D6000FE5F9387A7D99C432A8E9DE317F7FE5FFA
:101D7000130787D997F7FE5F23A2E7D817E5FEDFA1
:101D800013054528BA8709C51C4123A6F18EBA87D9
:101D9000D8437D487D556347E804630E0E0203A8CF
:101DA00087086301080493182700C29823A0C8007D
:101DB0000323081005463316E6003363C3002320CF
:101DC000681023A0D80889466317DE0083264810D0
:101DD000558E2322C810930617000A07D4C3BA975A
:101DE0008CC701458280797152CC56CA5AC85EC6EA
:101DF00006D622D426D24AD04ECE62C42A8B2E8A50
:101E000097FAFE5F938A8ACF854B03A40A0011C814
:101E10004440832984081389F4FF8A04A294635EF2
:101E20000900B250225492540259F249624AD24AED
:101E3000424BB24B224C45618280630E0A0063958F
:101E400009007D19F114E1BF93172900CE9783A7EC
:101E50000708E39847FF5840DC407D1763182703C5
:101E600023222401F9DF032C44006388090083A6A0
:101E7000091033972B01F98E89EE8297584083A77A
:101E80000A00E31487F9E30EF4FA41B723A2040031
:101E9000D1BF93162900CE968C4283A64910758F28
:101EA00001E75A858297D9BF2E858297C1BFB717A0
:101EB0000080938707B098431DEF411122C426C2CA
:101EC00006C6370401200547B704012098C3938450
:101ED000C42E9307042E63FB9700638997001304B5
:101EE000042E1C4011048297E31D94FEB24022444C
:101EF0009244410182808280B71700809387C7AFE8
:101F000098431DEF411122C426C206C637040120A2
:101F10000547B704012098C39384042F9307042F27
:101F200063FB9700638997001304042F1C4011047E
:101F30008297E31D94FEB240224492444101828084
:101F40008280B717008003A707A6AA85138507A676
:101F5000032347000283B71700809387C7AA1D8D0C
:101F60001335150011678E0566052E9593074700FA
:101F7000AA97FD558CC33A9510C194C30145828040
:101F80004111B717008022C406C626C24AC09387F3
:101F9000C7AA2A8458416309F50015CFB2402244EC
:101FA000924402494101828075FBB7040080138985
:101FB000840B83270900AA860146DC4F8D451385D3
:101FC000840B829783270900A2860146DC4F9D453A
:101FD0001385840B829785475CC0B24022449244AB
:101FE0000249410182807D558280371700801307A6
:101FF000C7AAB307E54093B717008946E60763868B
:10200000D50463DFB6000D476389E5041147639D7E
:10201000E500014519CA18420A07BA978843828029
:1020200085476393F50019E27D5582806302E504DC
:10203000B167138587FFF11798430C419443E31D63
:10204000D7FE0CC258C20145828079DE1842014594
:102050000A07BA9723A00700828079D618420A0798
:10206000BA97054798C30F00800401459C438280BE
:10207000B7C70002138587FFF1177DBF6F104012AD
:10208000011122CC26CA4AC84EC652C406CEAA8422
:102090002E843289B689EF10A0102A8A732540F168
:1020A000EF20803A1C41DC578297B7170080938756
:1020B000C7AA638BF400F2406244D2444249B24959
:1020C000224A7D55056182808547E3E647FFB707D1
:1020D00000801387870BE310E5FE8D466305D4006F
:1020E0009D46E31AD4FC1843A2856244F240D244D0
:1020F000224ACE864A86B24942490323C701138544
:10210000870B05610283411122C406C62A84EF2091
:102110006034B71700809387C7AAB307F44093B71A
:1021200017000A05B2402244E607AA9723A0070039
:10213000014541018280411122C406C62A84EF2054
:102140006031B71700809387C7AAB307F44093B7ED
:1021500017000A05E607AA97054798C30F008004F1
:10216000B240224401459C4341018280411122C476
:1021700006C62E84732540F1EF20002D1C41DC574C
:10218000829701CD0547636A87001C41A2852244DE
:10219000B24003A3470041010283B24022447D556F
:1021A00041018280ADC1411122C426C206C6AA8463
:1021B0002E84732540F1EF2020291C41DC578297A3
:1021C000B71700809387C7AA6388F400B2402244FF
:1021D00092447D5541018280370700809307870B29
:1021E000E316F5FE8D466305D4009D46E310D4FE4C
:1021F0009C43A2852244B240924403A347021305A4
:10220000870B410102837D558280ADC1411122C4FB
:1022100026C206C6AA842E84732540F1EF20C02270
:102220001C41DC578297B71700809387C7AA638841
:10223000F400B240224492447D5541018280370728
:1022400000809307870BE316F5FE8D466305D400E7
:102250009D46E310D4FE9C43A2852244B2409244A2
:1022600003A387021305870B410102837D558280FA
:10227000F32740F11397270093874182BA97984339
:10228000F327203405C793F7F73F9386418193875F
:10229000870E631ED700B70600808A079386860BD9
:1022A000B69703A30700AA853A85028382808A072E
:1022B0009C430290828000000000000000000000AB
:1022C000000000000000000000000000000000000E
:1022D00000000000000000000000000000000000FE
:1022E00000000000000000000000000000000000EE
:1022F00000000000000000000000000000000000DE
:10230000397106DE16DC1ADA1ED82AD62ED432D25D
:1023100036D03ACE3ECC42CA46C872C676C47AC2DD
:102320007EC0F32740F11397270093874182BA9725
:102330008843F3262034F3271034F32730347326F0
:10234000503005C5938741816314F504B7070080B9
:102350009387870B13F7F63F63C106049306870E36
:102360008A06B6979C43BA858297F250E25252533E
:10237000C2533255A255125682567247E24752480E
:10238000C248324EA24E124F824F2161730020305C
:10239000814713F7F63FE3D306FC93060008630F6B
:1023A000D702AD4663D0E6021376F60301CE894626
:1023B000E31DD6FAF3267030944283A5C70D3A8503
:1023C000829665B793161700BA968E06B69783A6BF
:1023D000070983A587093A85829641BF03A7073974
:1023E00083A5873913050008029741B70000000054
:1023F00000000000000000000000F327503093F7B9
:10240000F703FD17094701456369F7003707012006
:102410008A071307C75BBA97884382800145828089
:10242000F32500B8732500B0F32700B8E39AF5FE52
:1024300082802A8711C93725F400938741811305CB
:10244000054081456304F700014581458280011103
:10245000814701483EC406CE42C6938741816394BA
:10246000A702B707008083A7471F0145814589CB95
:1024700098438545300078473E8502972245B2450E
:10248000F24005618280F24001458145056182800C
:10249000371500801305C5AA82801D4582800D4531
:1024A0008280011106CE2EC693874181639FA700CB
:1024B000B707008003A5471909C91C4170008D4565
:1024C000FC478297F24005618280F2407D550561AC
:1024D0008280011106CE2EC693874181639FA7009B
:1024E000B707008003A5471909C91C417000894539
:1024F000FC478297F24005618280F2407D5505617C
:102500008280011106CE2EC6938741816391A70276
:10251000B707008083A74719014599C79843700002
:10252000914578473E850297F24005618280F240EE
:10253000014505618280938741816397A700370534
:1025400000801305850B82800145828083D70500BA
:102550000D4711458D8B6383E70009458280732504
:102560001034828073901534014582800145828049
:1025700041111305400606C6EF10306E41111305D8
:10258000800C06C6EF10706D011106CE22CCF32729
:1025900040F101476347F000138741828A07BA97E9
:1025A0009843814701483EC442C693874181631CDA
:1025B000F702370400801304840B0325C41305C5F8
:1025C0001C4130008545FC478297A246B24703254F
:1025D000C4131386A600B336D600BE9609C51C41A7
:1025E0008145BC4B8297F2406244056182805C4128
:1025F000A5E7930705091307053923A0070023A2C0
:10260000070023A40700E107E399E7FEB7270120AD
:10261000938707572320F53A2322F53A2324F53AE6
:102620002326F53A2328F53A232AF53A232CF53ABE
:10263000232EF53A2320F53C2322F53C2324F53CB8
:102640002326F53C73275030B70701209387C71323
:102650006305F70085475CC18280F3275030B727B8
:10266000012093870730F19B7390573085475CC1F9
:10267000E5B7AD476388F50263CBB7008D47638349
:10268000F5029D476380F502D5573E85828041471C
:10269000D557E3CCE5FE7D476356B7001307000826
:1026A000E395E5FE93070008638FF50029C693972D
:1026B0001500BE958E052E9581472328C508232C2D
:1026C000D5083E858280F327503093F7F703FD1736
:1026D0000947636AF700370701208A071307C75BBA
:1026E000BA979C43BDEB25CE81472328C538232CC0
:1026F000D5383E8582809387D5FF7147636DF70497
:10270000370701208A0713078744BA979C438287BB
:1027100093971500AE978E073E95B72701209387B4
:10272000C7572328F508232AD5088147B9BFB727FB
:10273000012093878758232CF512232ED512814729
:10274000A9B7B727012093870727232CF50C232E41
:10275000D50C81471DBFD1570DBFCD573DB7B7270A
:1027600001209387472B2328F538232CD538814720
:1027700029BF938741816391A702AD4763CEB7001C
:1027800001CE9385850EB70700809387870B8A0556
:10279000BE9590C1014582807D55828037150080AD
:1027A0001305C5AA828085C185476399F502F32781
:1027B0005030B74701209387074893E7170073907D
:1027C000573001458280F3275030B7270120938787
:1027D0000730F19B73905730014582807D55828090
:1027E00093874181639EA700B707008003A5471F19
:1027F00001C91C41B2862E8603A3070581450283C9
:102800007D55828039C9FD4763E9B7043707012048
:10281000939725001307C74BBA979C4382870545BA
:10282000B315B500F3B5453001458280A147F3B734
:1028300007302E858280A147F3B74730014582805B
:1028400093070008F3B74730014582808567938777
:102850000780F3B74730014582807D55828039C9B2
:10286000FD4763E9B7043707012093972500130755
:10287000C753BA979C4382870545B315B500F3A5A6
:10288000453001458280A147F3A707302E8582801D
:10289000A147F3A747300145828093070008F3A7BB
:1028A000473001458280856793870780F3A74730CB
:1028B000014582807D558280732540F18280397187
:1028C0002AD61305C01206DE16DC1ADA1ED82ED45C
:1028D00032D236D03ACE3ECC42CA46C872C676C450
:1028E0007AC27EC0EF107037397106DE16DC1ADA54
:1028F0001ED82AD62ED432D236D03ACE3ECC42CAB8
:1029000046C872C676C47AC27EC0F32740F11397D8
:10291000270093874182BA97984319CF93874181C3
:10292000631FF702B70700809387870B03A7870D04
:1029300083A5070E0D450297F250E2525253C2533F
:102940003255A255125682567247E2475248C24843
:10295000324EA24E124F824F2161730020308327E6
:10296000000E0290397106DE16DC1ADA1ED82AD65D
:102970002ED432D236D03ACE3ECC42CA46C872C6E7
:1029800076C47AC27EC0F32740F11397270093875D
:102990004182BA97984319CF93874181631FF70209
:1029A000B70700809387870B03A7871383A50714B6
:1029B0001D450297F250E2525253C2533255A2556E
:1029C000125682567247E2475248C248324EA24ED1
:1029D000124F824F21617300203083270014029030
:1029E000397106DE16DC1ADA1ED82AD62ED432D277
:1029F00036D03ACE3ECC42CA46C872C676C47AC2F7
:102A00007EC0F32740F11397270093874182BA973E
:102A1000984319CF93874181631FF702B70700805E
:102A20009387870B03A7072183A587214145029739
:102A3000F250E2525253C2533255A25512568256A8
:102A40007247E2475248C248324EA24E124F824F5E
:102A5000216173002030832780210290397106DEC6
:102A600016DC1ADA1ED82AD62ED432D236D03ACE76
:102A70003ECC42CA46C872C676C47AC27EC0F3272C
:102A800040F11397270093874182BA97984319CF53
:102A900093874181631FF702B70700809387870BF5
:102AA00003A7872283A5072345450297F250E252E8
:102AB0005253C2533255A255125682567247E247BC
:102AC0005248C248324EA24E124F824F21617300CB
:102AD0002030832700230290397106DE16DC1ADAD3
:102AE0001ED82AD62ED432D236D03ACE3ECC42CAC6
:102AF00046C872C676C47AC27EC0F32740F11397E7
:102B0000270093874182BA97984319CF93874181D1
:102B1000631FF702B70700809387870B03A707247B
:102B200083A5872449450297F250E2525253C2537B
:102B30003255A255125682567247E2475248C24851
:102B4000324EA24E124F824F2161730020308327F4
:102B500080240290397106DE16DC1ADA1ED82AD6D5
:102B60002ED432D236D03ACE3ECC42CA46C872C6F5
:102B700076C47AC27EC0F32740F11397270093876B
:102B80004182BA97984319CF93874181631FF70217
:102B9000B70700809387870B03A7872583A50726A0
:102BA0004D450297F250E2525253C2533255A2554C
:102BB000125682567247E2475248C248324EA24EDF
:102BC000124F824F2161730020308327002602902C
:102BD000397106DE16DC1ADA1ED82AD62ED432D285
:102BE00036D03ACE3ECC42CA46C872C676C47AC205
:102BF0007EC0F32740F11397270093874182BA974D
:102C0000984319CF93874181631FF702B70700806C
:102C10009387870B03A7072783A58727514502972B
:102C2000F250E2525253C2533255A25512568256B6
:102C30007247E2475248C248324EA24E124F824F6C
:102C4000216173002030832780270290397106DECE
:102C500016DC1ADA1ED82AD62ED432D236D03ACE84
:102C60003ECC42CA46C872C676C47AC27EC0F3273A
:102C700040F11397270093874182BA97984319CF61
:102C800093874181631FF702B70700809387870B03
:102C900003A7872883A5072955450297F250E252DA
:102CA0005253C2533255A255125682567247E247CA
:102CB0005248C248324EA24E124F824F21617300D9
:102CC0002030832700290290397106DE16DC1ADADB
:102CD0001ED82AD62ED432D236D03ACE3ECC42CAD4
:102CE00046C872C676C47AC27EC0F32740F11397F5
:102CF000270093874182BA97984319CF93874181E0
:102D0000631FF702B70700809387870B03A7072A83
:102D100083A5872A59450297F250E2525253C25373
:102D20003255A255125682567247E2475248C2485F
:102D3000324EA24E124F824F216173002030832702
:102D4000802A0290397106DE16DC1ADA1ED82AD6DD
:102D50002ED432D236D03ACE3ECC42CA46C872C603
:102D600076C47AC27EC0F32740F113972700938779
:102D70004182BA97984319CF93874181631FF70225
:102D8000B70700809387870B03A7872B83A5072CA2
:102D90005D450297F250E2525253C2533255A2554A
:102DA000125682567247E2475248C248324EA24EED
:102DB000124F824F2161730020308327002C029034
:102DC000397106DE16DC1ADA1ED82AD62ED432D293
:102DD00036D03ACE3ECC42CA46C872C676C47AC213
:102DE0007EC0F32740F11397270093874182BA975B
:102DF000984319CF93874181631FF702B70700807B
:102E00009387870B03A7072D83A5872D614502971D
:102E1000F250E2525253C2533255A25512568256C4
:102E20007247E2475248C248324EA24E124F824F7A
:102E30002161730020308327802D0290397106DED6
:102E400016DC1ADA1ED82AD62ED432D236D03ACE92
:102E50003ECC42CA46C872C676C47AC27EC0F32748
:102E600040F11397270093874182BA97984319CF6F
:102E700093874181631FF702B70700809387870B11
:102E800003A7872E83A5072F65450297F250E252CC
:102E90005253C2533255A255125682567247E247D8
:102EA0005248C248324EA24E124F824F21617300E7
:102EB00020308327002F0290397106DE16DC1ADAE3
:102EC0001ED82AD62ED432D236D03ACE3ECC42CAE2
:102ED00046C872C676C47AC27EC0F32740F1139703
:102EE000270093874182BA97984319CF93874181EE
:102EF000631FF702B70700809387870B03A707308C
:102F000083A5873069450297F250E2525253C2536B
:102F10003255A255125682567247E2475248C2486D
:102F2000324EA24E124F824F216173002030832710
:102F300080300290397106DE16DC1ADA1ED82AD6E5
:102F40002ED432D236D03ACE3ECC42CA46C872C611
:102F500076C47AC27EC0F32740F113972700938787
:102F60004182BA97984319CF93874181631FF70233
:102F7000B70700809387870B03A7873183A50732A4
:102F80006D450297F250E2525253C2533255A25548
:102F9000125682567247E2475248C248324EA24EFB
:102FA000124F824F2161730020308327003202903C
:102FB000397106DE16DC1ADA1ED82AD62ED432D2A1
:102FC00036D03ACE3ECC42CA46C872C676C47AC221
:102FD0007EC0F32740F11397270093874182BA9769
:102FE000984319CF93874181631FF702B707008089
:102FF0009387870B03A7073383A587337145029710
:10300000F250E2525253C2533255A25512568256D2
:103010007247E2475248C248324EA24E124F824F88
:10302000216173002030832780330290397106DEDE
:1030300016DC1ADA1ED82AD62ED432D236D03ACEA0
:103040003ECC42CA46C872C676C47AC27EC0F32756
:1030500040F11397270093874182BA97984319CF7D
:1030600093874181631FF702B70700809387870B1F
:1030700003A7873483A5073575450297F250E252BE
:103080005253C2533255A255125682567247E247E6
:103090005248C248324EA24E124F824F21617300F5
:1030A0002030832700350290397106DE16DC1ADAEB
:1030B0001ED82AD62ED432D236D03ACE3ECC42CAF0
:1030C00046C872C676C47AC27EC0F32740F1139711
:1030D000270093874182BA97984319CF93874181FC
:1030E000631FF702B70700809387870B03A7073694
:1030F00083A5873679450297F250E2525253C25364
:103100003255A255125682567247E2475248C2487B
:10311000324EA24E124F824F21617300203083271E
:1031200080360290397106DE16DC1ADA1ED82AD6ED
:103130002ED432D236D03ACE3ECC42CA46C872C61F
:1031400076C47AC27EC0F32740F113972700938795
:103150004182BA97984319CF93874181631FF70241
:10316000B70700809387870B03A7873783A50738A6
:103170007D450297F250E2525253C2533255A25546
:10318000125682567247E2475248C248324EA24E09
:10319000124F824F21617300203083270038029044
:1031A000F327503093F7F703FD170947014563698B
:1031B000F700370701208A071307C75BBA978843D0
:1031C0008280B7070080938787486384A7007D5576
:1031D00082809947E3EDC7FEB707000C8A05BE95CC
:1031E00090C101458280B707008093878748638735
:1031F000A70081478A05BE9588418280B707000CE9
:103200008A05BE958841828037070080130787486A
:10321000B307E54093B71700B307F04093F75703A0
:1032200063DFF5041398250005C66317E500B707AB
:10323000000CC297094798C393971500AE972A9838
:103240008E073E952324C8002328D50E0145828091
:103250006317E500B707000CC297054798C393971B
:103260001500AE97373701202A988E071307673964
:103270003E952324E8002326D50E014582807D5506
:1032800082803707008013078748B307E54093B76C
:103290001700B307F04093F75703FD56635DF6023E
:1032A00095C98147630BE5021357564093162700D3
:1032B000858105473316C70091CD0967B697130777
:1032C0000708BA979843938707088581518F23A0F1
:1032D000E7F8EDF9814636858280B707000CE9B73B
:1032E000B706008093868648B307D54093B717008A
:1032F000B307F04093F757037D57635EF6029DC90D
:103300008147630CD5020547935656408581331695
:10331000C7008A061346F6FF91CD0967B6971307D3
:103320000708BA979843938707088581718F23A070
:10333000E7F8EDF901473A858280B707000CE1B75D
:1033400095C137070080130787488147630EE50062
:10335000858189C937172000BA97056790C3858191
:10336000BA97EDFD01458280B707000CD5B7B707C6
:103370000080938787481D8D133515003305A040C5
:1033800037072000B707000CB205E98FBA95BE9544
:103390009C410145828041111305C01206C6EF1001
:1033A000C00B411122C44AC006C626C22E89EFF0C6
:1033B000AFD03334A000B707008033048040938738
:1033C00087483204630EF9003705200011052A945E
:1033D000044004C0B2402244924402494101828028
:1033E0003705200C11052A94044093074003E3E2BB
:1033F00097FE93972400CA979C47E1DF93951400AA
:10340000A6958E052E998325090F26858297B240B1
:1034100004C022449244024941018280411122C4E5
:1034200026C206C6AE842A84EFF00FC9B707008013
:10343000938787481D8C1334140033048040320571
:10344000B707000C37072000E18FB24022443A95BD
:103450003E9504C19244014541018280411122C43C
:1034600006C62A84EFF04FC5B707008093878748C8
:103470000147630CF400B24022443205B707200034
:103480003E953A950841410182803707000CE5B727
:1034900041113707008022C406C6130787482E84CF
:1034A000630AA70263D10504EFF00FC18146935769
:1034B00054408A070967BA97B6971E053E950C4196
:1034C0008547B3978700CD8F1CC10145B240224488
:1034D000410182809307400363C7B700EFF0CFBD7F
:1034E000B706000CE9B77D55D5B741113707008005
:1034F00022C406C6130787482E84630CA70263D331
:103500000504EFF06FBB8146935754408A07096763
:10351000BA97B6971E053E950C418547B39787002D
:1035200093C7F7FFED8F1CC10145B2402244410112
:1035300082809307400363C7B700EFF0EFB7B70689
:10354000000CD9B77D55D5B75C4191C3828041113C
:10355000B707008022C426C24AC03704008006C6CE
:1035600093878748AA841309840B6304F50883278B
:1035700009001305840B9C43829781460965054821
:103580009305F03F11A0850693D756408A07AA9766
:1035900090433317D8001347F7FF718F98C3E39414
:1035A000B6FEB707200003270900A6860146584F3C
:1035B000AD4523A007001305840B0297832709005C
:1035C00037360120A686DC4F1306263AAD45130593
:1035D000840B8297832709001305840BAD45DC53C8
:1035E0008297B24022448547DCC00249924441019F
:1035F0008280832709001305840B9C43829793855F
:10360000C40E8146B72E000C054E13034003130F62
:10361000F03FB708000C19A8232008002324060057
:1036200023A0050023A205008506E10513D7564017
:103630000A0776970843B317DE0093C7F7FFE98FB1
:10364000139626001CC3330816012696E376D3FC96
:10365000E39CE6FDB707200CB9B783A7818341112E
:1036600006C622C4814513850182829793171500EF
:1036700063D607022A846353050237050080832737
:1036800085071374F403130585079C43050482978B
:1036900033558502B2402244410182807D55DDBF11
:1036A00083A78183411106C622C481451385018207
:1036B00082979317150063D607022A846353050285
:1036C00037050080832785071374F40313058507E6
:1036D0009C430504829733558502B2402244410140
:1036E00082807D55DDBF83A78183411106C6914548
:1036F0001385018282979317150063DF0700635DCE
:1037000005003705008083270506B240130505062E
:1037100003A3070041010283B2407D55410182802D
:1037200083A78183411106C6914513850182829743
:103730009317150063DF0700635D05003705008000
:1037400083270506B2401305050603A307004101C0
:103750000283B2407D5541018280138501828280BF
:1037600021458280411122C4404126C206C6AA8456
:1037700011C41C4048408297004465FCB787001084
:1037800098479316F70063D706009847C176FD1651
:10379000758F98C73787001094401C473706020082
:1037A000D442D18FB725F4001CC7938505402685E8
:1037B0008296804411C41C4048408297004465FCB6
:1037C000B2402244924441018280411106C622C483
:1037D00026C2AA8471372A842685413783A481832F
:1037E000A28582942A84B14513850182829493171D
:1037F000F40063D007089317E400AA8463C60706A1
:1038000037050080130545081C419C438297931798
:10381000D40063C60704935744000567130707C025
:1038200093F7F703937674008507798C1307F03FBD
:1038300085068607637C87043345D50205472980C2
:103840003314870013F704103305F502334585025E
:1038500019E793F4F4038504860433559502B240C6
:103860002244924441018280370500801305C50639
:1038700061BF37050080832745082244B240924447
:1038800003A3070013054508410102837D55C1BF0D
:10389000797122D426D24AD006D64ECE52CCAA84F2
:1038A0002E89378400106D3D2A941C401397F70031
:1038B000635707001C4041777D17F98F1CC01C40DF
:1038C0001397E700634E070A370500801305450884
:1038D0001C419C438297931715003387A700935789
:1038E000F7418D8BBA978987634DF90093172500AF
:1038F0003387A7009357F7418D8BBA97898763DE8B
:103900002705B7170120B7050080938707F47D5876
:1039100093C5F5FF130630047D5398476369E502AC
:10392000D8476366A7029443D843B306D502B3D6FB
:10393000E602338726419358F74133C7E80033073F
:103940001741638666006354B7003288BA857D16D6
:103950008117E31466FC631AC8021C403707040091
:10396000D98F1CC01C4041672685D98F1CC0B13D32
:10397000B250225492540259F249624A45618280FF
:10398000370500801305C506A1B71840B707012009
:103990009387076E16083E98937787FF1CC003270E
:1039A00008011440832748011D8B558F18C018400B
:1039B000920793F7073F1377F7C018C01840FD76BA
:1039C0009386F63FD98F1CC0184083278801758FD6
:1039D00018C014400567130707C0AA07F98F03270B
:1039E000C801D58F1CC0B7870010634D0706D447A8
:1039F0001377F70393F6F6EFD4C7D44793F606FC94
:103A0000D4C7D447558FD8C71C403707FCFF7D1754
:103A1000F98FB71900801CC0300085451385C9AAED
:103A2000EFE0AFDC2247B247130A47003339EA0020
:103A30003E996362F902638427053000854513854A
:103A4000C9AAEFE08FDAB2476367F900E39727FF6F
:103A5000A247E374FAFE1C40E3C607F01C40E3DC17
:103A600007FE09B7D84713670710D8C7D847137799
:103A700007FCD8C7D84713671700D8C771B7E37ECC
:103A8000EAFAD1BFB7870010BE9588418280B78718
:103A90000010BE9590C1328582809387C181638872
:103AA000A700914798430145D98D8CC38280B727E1
:103AB0000110910798430145D98D8CC3828093876B
:103AC000C181638AA7009147984393C5F5FF0145DB
:103AD000F98D8CC38280B72701109107984393C555
:103AE000F5FF0145F98D8CC382809387C181638581
:103AF000A700814788438280B727011088438280CE
:103B00009387C1816385A700B14788438280B72727
:103B10000110B107884382809387C181638AA7001F
:103B2000A147984393C5F5FF0145F98D8CC3828069
:103B3000B7270110A107984393C5F5FF0145F98DFB
:103B40008CC382809387C1816388A700A147984373
:103B50000145D98D8CC38280B7270110A1079843F6
:103B60000145D98D8CC382809387C1816388A7006A
:103B7000B14798430145D98D8CC38280B727011086
:103B8000B10798430145D98D8CC382809387C18149
:103B9000638AA700B147984393C5F5FF0145F98DA6
:103BA0008CC38280B7270110B107984393C5F5FFF6
:103BB0000145F98D8CC382809387C1816388A700FA
:103BC000B14798430145B98D8CC38280B727011056
:103BD000B10798430145B98D8CC382809387C18119
:103BE000638EA7009307C003944313078003014526
:103BF000D58D8CC31C435D8E10C38280B727011006
:103C0000138787039387C70394430145D58D8CC3DE
:103C10001C435D8E10C382809387C181638BA70094
:103C200093078003984393C5F5FF0145F98D8CC335
:103C30008280B727011093878703984393C5F5FFC8
:103C40000145F98D8CC382809387C181638CA70461
:103C500013080003930680021305000261479D4785
:103C600063E8C702B7170120938707F60A063E9656
:103C70001C4282871C43CD8F1CC31C41CD8F1CC1AD
:103C80009C42CD8F9CC283270800DD8D2320B80085
:103C9000014582801C43CD8F1CC31C41DD8D0CC1AE
:103CA0000145828037270110130807039306870216
:103CB00013050702610765B71C430145DD8D0CC381
:103CC00082809C420145DD8D8CC282801C4393C55D
:103CD000F5FFED8F1CC31C41ED8F1CC19C420145BB
:103CE000ED8F9CC283270800FD8D2320B8008280C1
:103CF0009387C181638EA704930640031305C00216
:103D00001308400271479D4763E8C702B7170120B7
:103D1000938707F80A063E961C4282871C43CD8F84
:103D20001CC383270800CD8F2320F8001C41CD8FB2
:103D30001CC19C42DD8D8CC2014582801C43CD8F0D
:103D40001CC3832708000145DD8D2320B800828035
:103D500037270110930647031305C70213084702CC
:103D6000710755B71C41DD8D0CC1014582801C4394
:103D70000145DD8D0CC382809387C1816397A700C5
:103D8000370500801305854882800145828093872E
:103D9000C1816384A700014582802145D5CD854737
:103DA0006385F50C89476384F50C8D476383F50CB7
:103DB00091476382F50C95476381F50C99476380C1
:103DC000F50C9D47638FF50A6381A50CA5476386B3
:103DD000F508A9476387F508AD476386F508B1473D
:103DE0006389F50AB5476388F50AB9476387F50A19
:103DF000BD476386F50AC1476385F50AC5476384F5
:103E0000F50AC9476383F50ACD47638EF506D147A6
:103E1000638FF506D5476384F504D9476389F508B0
:103E2000DD476388F508E1476387F508E547638761
:103E3000F508E9476387F508ED476387F508F1471B
:103E40006387F508F5476380F504F9476381F50456
:103E5000FD4701456385F5008280454582807545B3
:103E60008280494582804D45828025458280294552
:103E700082802D458280314582803545828039455A
:103E800082803D4582806D458280414582807145BA
:103E900082805145828055458280594582805D45AA
:103EA000828061458280654582806945828079454E
:103EB00082807D45828013050002828013051002F6
:103EC0008280130520028280130530028280130550
:103ED00040028280B7170080938707A66308F50029
:103EE000B7170080938707A86317F5003705008090
:103EF00013058548828001458280B717008093872B
:103F000007A6630BF500B7170080938707A81D8DE0
:103F1000133515000A0582800D458280B717008091
:103F2000938707A66308F502B7170080938707A851
:103F300041476308F5001C43014593E717001CC384
:103F400082803737021041071C43014593E7170071
:103F50001CC382803737011041071C43014593E79A
:103F600017001CC38280B7170080938707A66306DB
:103F7000F502B7170080938707A841476307F5004C
:103F80001C430145F99B1CC382803737021041074F
:103F90001C430145F99B1CC3828037370110410740
:103FA0001C430145F99B1CC38280B717008093878F
:103FB00007A66308F502B7170080938707A8414753
:103FC0006308F5001C43014593E727001CC382806A
:103FD0003737021041071C43014593E727001CC3F4
:103FE00082803737011041071C43014593E72700C2
:103FF0001CC38280B7170080938707A66306F5026B
:10400000B7170080938707A841476307F5001C4353
:104010000145F59B1CC382803737021041071C43C2
:104020000145F59B1CC382803737011041071C43B3
:104030000145F59B1CC38280B7170080938707A6B4
:104040006301F502B7170080938707A81D8D13350C
:1040500015003305A040B7370210E98F88437D81F2
:104060008280B737011088437D818280B717008036
:10407000938707A6630EF502B7170080938707A8FA
:10408000630CF500A1479843B7060700C205F58DFC
:10409000D98D8CC301458280B7370210A1079843A0
:1040A000B7060700C205F58DD98D8CC30145828006
:1040B000B7370110A1079843B7060700C205F58D71
:1040C000D98D8CC301458280B7170080938707A6DE
:1040D0006304F502B7170080938707A86307F5000C
:1040E000A147884341811D898280B7370210A1070B
:1040F000884341811D898280B7370110A107884319
:1041000041811D898280B7170080938707A6630EBF
:10411000F502B7170080938707A8630CF500B14735
:104120009843B7060700C205F58DD98D8CC30145AC
:104130008280B7370210B1079843B7060700C2055F
:10414000F58DD98D8CC301458280B7370110B10739
:104150009843B7060700C205F58DD98D8CC301457C
:104160008280B7170080938707A66304F502B7170C
:104170000080938707A86307F500B1478843418112
:104180001D898280B7370210B107884341811D899C
:104190008280B7370110B107884341811D89828031
:1041A000B717008037170080938707A6130707A863
:1041B0006306F502630AA70083270000E3CE07FE2B
:1041C00081478CC301458280373702101C43E3CFFF
:1041D00007FEB73702108CC30145828037370110C4
:1041E0001C43E3CF07FEB73701108CC30145828023
:1041F000B7170080938707A66306F502B7170080FC
:10420000938707A8630CF50091479843FD576344D3
:1042100007009377F70F9CC101458280B7370210E2
:104220009107E5B7B73701109107C5B748418280BC
:104230000111B717008006CE22CC26CA4AC84EC646
:10424000938707A6630AF506B7170080938707A828
:10425000630BF500F24062444CC1D2444249B2497A
:10426000014505618280B73402101389C400938927
:104270008400E104B707008003A707094CC1138538
:1042800007091C432E848297B3458502F24062449D
:104290000145FD158CC083A70900D24493E71700A0
:1042A00023A0F90083270900B24993E717002320D0
:1042B000F900424905618280B73401101389C400B6
:1042C00093898400E1047DB70111B717008026CAE5
:1042D00006CE22CC938707A6AA84630FF506B717EC
:1042E0000080938707A8630FF5045147A146014555
:1042F0009C423706F9FF7D16F18F9CC29C424166B5
:10430000D18F9CC21C43858BF5DF1C4180429C43AE
:10431000098813341400829725043305A402D84079
:1043200002C6B2473355E50263D9A7000100B24780
:1043300085073EC6B247E3CBA7FEF2406244D244B3
:1043400005618280B7360210370500801387460169
:1043500013050509A10669BFB736011037050080AE
:104360001387460113050509A10659B718414C41A9
:104370000323470102834111184126C2B71400806C
:1043800022C406C6938404A62A842E8803234701E8
:104390006308950037170080130707A8631AE5081C
:1043A0003706008013060609374701204C421307E1
:1043B000872C18C440C42328040013058400C1C1FD
:1043C000AE8611A0BA86984675FF88C63747012089
:1043D00008461307C7364CC258C800CC232E040029
:1043E0009305440139C9AA8611A0BA86984675FF7B
:1043F0008CC608C6C2852285029363049404B7174D
:104400000080938707A8B307F44093B717003706D7
:104410008400B307F0407D8E83A7C1812244B2405F
:10442000924403A3470281451385C1814101028360
:104430002244B2409244410102832E855DBFAA8589
:1044400071B737060300C9BF01E503A50184828067
:1044500001458280732540F182800100FDBF00008C
:10446000000000000000000000000000000000004C
:10447000000000000000000000000000000000003C
:104480006FE0EFC36FE0AFC36FE06FC36FE0CFC506
:104490006FE0EFC26FE0AFC26FE06FC26FE08FCC32
:1044A0006FE0EFC16FE0AFC16FE06FC16FE02FC190
:1044B0006FE0EFC06FE0AFC06FE06FC06FE02FC084
:1044C0006FE00FD26FE08FD96FE00FE16FE08FE800
:1044D0006FE00FF06FE08FF76FE00FFF6FE09F86E8
:1044E0006FE01F8E6FE09F956FE01F9D6FE09FA4B0
:1044F0006FE01FAC6FE09FB36FE01FBB6FE09FC228
:10450000B7070080938707066307F502B7070080A7
:10451000938787076306F502B70700809387C7096B
:104520006305F502B70700809387870A1D8D133551
:1045300015003E0582803725F40013050540828072
:1045400037A54A0413050520828021658280B707BC
:104550000080938707066307F502B70700809387FB
:1045600087076306F502B70700809387C7096305CD
:10457000F502B70700809387870A1D8D1335150054
:104580003E0582803725F40013050540828037A55B
:104590004A0413050520828021658280411106C6E8
:0245A0006D3D6F
:1045A8000000000090030120B003012070030120E7
:1045B80000000000000000000000000000000000F3
:1045C80000000000000000000000000000000000E3
:1045D80000000000000000000000000000000000D3
:1045E80000000000000000000000000000000000C3
:1045F80000000000000000000000000000000000B3
:10460800E40A00800000000000000000D00A0080DA
:104618000000000000000000E40A00800000000024
:1046280000000000C80A0080000000000000000030
:10463800D80601200000000000000000E40A008005
:104648000000000000000000E40A008000000000F4
:1046580000000000000000000C060120000000001F
:104668000000000000000000000000000000000042
:104678000000000000000000000000000000000032
:104688000000000000000000000000000000000022
:104698000000000000000000000000000000000012
:104A280000000000000000007006012000000000E7
:104A3800000000000000000000000000000000006E
:104A4800000000000000000000000000000000005E
:104A5800000000000000000000000000000000004E
:104A6800000000000000000000000000000000003E
:10500800DC0F01200000000000000000000000008C
:105018000000000000000000000000000000000088
:10502800DC0F01200000000000000000000000006C
:105038000000000000000000000000000000000068
:105048000000008000000080A00F0080E403012021
:1050580000000000C805012000000000A00F01208A
:10506800D80A0080B40A00805A360120A0360120F0
:10507800E636012020370120843A01208E3A0120AB
:0C508800B40A0080004501204E450120C4
:0400000520010000D6
:00000001FF
